:020000040000FA
:02000000FE2FD1
:100F3E00831603138601FF308312031386000630D7
:100F4E00F0007008831203138604EE30F000700870
:100F5E0086050430F200CF30F1000130F000F00BC6
:100F6E00B62FF10BB62FF20BB62FBD2F8312031334
:100F7E008615FD30F000700886050230F20045300F
:100F8E00F100A930F000F00BCA2FF10BCA2FF20BB3
:100F9E00CA2FD12F3030F00070088312031386044D
:100FAE00F330F000700886050430F200CF30F10007
:100FBE000130F000F00BE12FF10BE12FF20BE12FDE
:100FCE00E82F831203130614DF30F0007008860535
:100FDE000230F2004530F100A930F000F00BF52F91
:100FEE00F10BF52FF20BF52FFC2FA62F0028830106
:020FFE009F2F23
:00000001FF
